:020000020000FC
:100000000C9402005A9A00E005B90FEF04B904E01D
:100010000BB912E021E00E9424000C940B000E9416
:10002000560009B102FF0C9411000E94560009B15C
:1000300002FD0C9417000E94560009B102FF0C94B7
:100040001D000E9456000895105021F00E942C00BF
:100050000C94240012E00895022F012331F40E9431
:100060003A00220F2F5F0C942C00110F0E943A00CF
:1000700021E00895322F312B35B90E9440000895B8
:100080002F933F934F9329E13AE540EB09B102FFEB
:100090000E940F004A95D1F73A95C1F72A95B1F71A
:1000A000000000004F913F912F9108952F933F93AF
:1000B0004F9322E030EA4EE84A95F1F73A95E1F79E
:1000C0002A95D1F74F913F912F910000000008959C
:00000001FF
