:020000020000FC
:10000000289A00E00BB90FEF0AB901E005B912E038
:1000100021E00E9427000C94090003B100FF0E9418
:10002000120008950E94570003B100FF0C941400C1
:100030000E94570003B100FD0C941A000E94570063
:1000400003B100FF0C9420000E9457000895105047
:1000500021F00E942F000C94270012E00895022F37
:10006000012331F40E943D00220F23950C942F00B0
:10007000110F0E943D0021E00895022F012B0BB9C2
:100080000E94430008952F933F934F9325E032EE53
:1000900040E80E940D004A95E1F73A95D1F72A957C
:1000A000C1F7000000004F913F912F9108952F93C9
:1000B0003F934F9322E030EA4EE84A95F1F73A95A4
:1000C000E1F72A95D1F74F913F912F910000000061
:0200D000089591
:00000001FF
